:100000000C945C000C946E000C946E000C946E00CA
:100010000C946E000C946E000C946E000C946E00A8
:100020000C946E000C946E000C946E000C946E0098
:100030000C946E000C946E000C946E000C946E0088
:100040000C943A010C946E000C946E000C946E00AB
:100050000C946E000C946E000C946E000C946E0068
:100060000C946E000C946E00000000080002010069
:100070000003040700000000000000000000000072
:10008000250028002B0000000000240027002A0083
:10009000040404040404040402020202020203032E
:1000A0000303030301020408102040800102040836
:1000B000102001020408102011241FBECFEFD8E049
:1000C000DEBFCDBF21E0A0E0B1E001C01D92A131B3
:1000D000B207E1F70E9484010C94AE020C94000078
:1000E00090E0FC01EC55FF4F249180579F4FFC019D
:1000F0008491882399F090E0880F991FFC01EA57BA
:10010000FF4FA591B491FC01E458FF4F8591949164
:100110008FB7F894EC91E22BEC938FBF089590E0A9
:10012000FC01E859FF4F2491FC01EC55FF4F34913D
:10013000FC01E057FF4FE491EE23C9F0222339F090
:10014000233001F1A8F4213019F1223029F1F0E037
:10015000EE0FFF1FE458FF4FA591B4918FB7F894AD
:10016000EC91611126C030953E233C938FBF0895DA
:100170002730A9F02830C9F0243049F78091800059
:100180008F7D03C0809180008F7780938000DFCFC8
:1001900084B58F7784BDDBCF84B58F7DFBCF809115
:1001A000B0008F778093B000D2CF8091B0008F7D68
:1001B000F9CF3E2BDACF3FB7F89480910D019091A3
:1001C0000E01A0910F01B091100126B5A89B05C0AA
:1001D0002F3F19F00196A11DB11D3FBFBA2FA92FC6
:1001E000982F8827BC01CD01620F711D811D911DC3
:1001F00042E0660F771F881F991F4A95D1F708952F
:10020000FC012281338140E850E0BA01008002C045
:10021000759567950A94E2F7CB01F901E150FF4F1C
:100220009081982B9083F901E050FF4F9081982B9B
:100230009083F901EF5FFE4F9081892B80830895B1
:100240001F93CF93DF93182FD62FC8E06D2F6170C7
:10025000812F0E948F00D69561E083E00E948F007D
:1002600060E083E00E948F00C15081F7DF91CF9161
:100270001F9108951F920F920FB60F9211242F9382
:100280003F938F939F93AF93BF9380910901909178
:100290000A01A0910B01B0910C013091080123E0FB
:1002A000230F2D3758F50196A11DB11D209308018C
:1002B0008093090190930A01A0930B01B0930C0164
:1002C00080910D0190910E01A0910F01B09110014C
:1002D0000196A11DB11D80930D0190930E01A09375
:1002E0000F01B0931001BF91AF919F918F913F91FA
:1002F0002F910F900FBE0F901F90189526E8230F97
:100300000296A11DB11DD2CFCF93DF93CDB7DEB73B
:100310002B970FB6F894DEBF0FBECDBF789484B58F
:10032000826084BD84B5816084BD85B5826085BDF1
:1003300085B5816085BD80916E00816080936E007F
:100340001092810080918100826080938100809171
:100350008100816080938100809180008160809322
:1003600080008091B10084608093B1008091B000E2
:1003700081608093B00080917A00846080937A00DD
:1003800080917A00826080937A0080917A00816007
:1003900080937A0080917A00806880937A0010922E
:1003A000C10081E00E94700082E00E94700083E042
:1003B0000E94700084E00E94700085E00E9470003E
:1003C0001E821D8218861F8287E090E09A838983AF
:1003D0001C821B8222242394312CCC24C394D12C44
:1003E00034E0E32EF12C04E010E00C0D1D1DE20CB6
:1003F000F31C109200011092010110920201109260
:10040000030110920401109205011092060110924E
:1004100007018D819E819C012150310920173107F0
:1004200021F001968017910729F48F8198858E1508
:100430009F0589F089819A819C0121503109021719
:10044000130721F001960817190741F48B819C814D
:10045000E816F90619F4D194C194D108E114F10415
:1004600021F027E0E216F10419F4319421943108C7
:100470000830110521F487E090E00E94AE020F3FA2
:10048000100719F490E080E0F8CFCE0105960E94A5
:100490000001CE0101960E940001F701E050FF4FDC
:1004A000808120E830E0002E02C0359527950A941F
:1004B000E2F7822B808380E091E09B878A8790E837
:1004C0009987EA85FB85B190FB87EA8760E084E045
:1004D0000E948F00698581E00E94200161E084E034
:1004E0000E948F0060E085E00E948F006B2D82E00B
:1004F0000E94200161E085E00E948F00F985F69559
:10050000F9870E94DB002B013C0180E5882E912CAD
:10051000A12CB12C0E94DB0064197509860997098A
:10052000683E734081059105A8F321E0821A910885
:10053000A108B10838EE430E33E0531E611C711C54
:1005400081149104A104B10429F728E031E08A85DF
:100550009B852817390709F0B4CF47CFF894FFCF10
:107E0000112484B714BE81FFF0D085E080938100F7
:107E100082E08093C00088E18093C10086E0809377
:107E2000C20080E18093C4008EE0C9D0259A86E02C
:107E300020E33CEF91E0309385002093840096BBD3
:107E4000B09BFECF1D9AA8958150A9F7CC24DD24C4
:107E500088248394B5E0AB2EA1E19A2EF3E0BF2EE7
:107E6000A2D0813461F49FD0082FAFD0023811F036
:107E7000013811F484E001C083E08DD089C08234E0
:107E800011F484E103C0853419F485E0A6D080C0E4
:107E9000853579F488D0E82EFF2485D0082F10E0AE
:107EA000102F00270E291F29000F111F8ED06801E7
:107EB0006FC0863521F484E090D080E0DECF843638
:107EC00009F040C070D06FD0082F6DD080E0C81688
:107ED00080E7D80618F4F601B7BEE895C0E0D1E017
:107EE00062D089930C17E1F7F0E0CF16F0E7DF06D8
:107EF00018F0F601B7BEE89568D007B600FCFDCFD4
:107F0000A601A0E0B1E02C9130E011968C91119780
:107F100090E0982F8827822B932B1296FA010C0160
:107F200087BEE89511244E5F5F4FF1E0A038BF0790
:107F300051F7F601A7BEE89507B600FCFDCF97BE46
:107F4000E89526C08437B1F42ED02DD0F82E2BD052
:107F50003CD0F601EF2C8F010F5F1F4F84911BD097
:107F6000EA94F801C1F70894C11CD11CFA94CF0C13
:107F7000D11C0EC0853739F428D08EE10CD085E9AC
:107F80000AD08FE07ACF813511F488E018D01DD067
:107F900080E101D065CF982F8091C00085FFFCCF94
:107FA0009093C60008958091C00087FFFCCF809118
:107FB000C00084FD01C0A8958091C6000895E0E648
:107FC000F0E098E1908380830895EDDF803219F02E
:107FD00088E0F5DFFFCF84E1DECF1F93182FE3DFCA
:107FE0001150E9F7F2DF1F91089580E0E8DFEE27F6
:047FF000FF270994CA
:027FFE00040479
:0400000300007E007B
:00000001FF
