:100000000C945C000C946E000C946E000C946E00CA
:100010000C946E000C946E000C946E000C946E00A8
:100020000C946E000C946E000C946E000C946E0098
:100030000C946E000C946E000C946E000C946E0088
:100040000C941A010C946E000C946E000C946E00CB
:100050000C946E000C946E000C946E000C946E0068
:100060000C946E000C946E00000000080002010069
:100070000003040700000000000000000000000072
:10008000250028002B0000000000240027002A0083
:10009000040404040404040402020202020203032E
:1000A0000303030301020408102040800102040836
:1000B000102001020408102011241FBECFEFD8E049
:1000C000DEBFCDBF21E0A0E0B1E001C01D92A131B3
:1000D000B207E1F70E9464010C941B020C9400002B
:1000E00090E0FC01EC55FF4F249180579F4FFC019D
:1000F0008491882399F090E0880F991FFC01EA57BA
:10010000FF4FA591B491FC01E458FF4F8591949164
:100110008FB7F894EC91E22BEC938FBF089590E0A9
:10012000FC01E859FF4F2491FC01EC55FF4F34913D
:10013000FC01E057FF4FE491EE23C9F0222339F090
:10014000233001F1A8F4213019F1223029F1F0E037
:10015000EE0FFF1FE458FF4FA591B4918FB7F894AD
:10016000EC91611126C030953E233C938FBF0895DA
:100170002730A9F02830C9F0243049F78091800059
:100180008F7D03C0809180008F7780938000DFCFC8
:1001900084B58F7784BDDBCF84B58F7DFBCF809115
:1001A000B0008F778093B000D2CF8091B0008F7D68
:1001B000F9CF3E2BDACF3FB7F89480910D019091A3
:1001C0000E01A0910F01B091100126B5A89B05C0AA
:1001D0002F3F19F00196A11DB11D3FBFBA2FA92FC6
:1001E000982F8827BC01CD01620F711D811D911DC3
:1001F00042E0660F771F881F991F4A95D1F708952F
:100200001F93CF93DF93182FD62FC8E06D2F617007
:10021000812F0E948F00D69561E083E00E948F00BD
:1002200060E083E00E948F00C15081F7DF91CF91A1
:100230001F9108951F920F920FB60F9211242F93C2
:100240003F938F939F93AF93BF93809109019091B8
:100250000A01A0910B01B0910C013091080123E03B
:10026000230F2D3758F50196A11DB11D20930801CC
:100270008093090190930A01A0930B01B0930C01A4
:1002800080910D0190910E01A0910F01B09110018C
:100290000196A11DB11D80930D0190930E01A093B5
:1002A0000F01B0931001BF91AF919F918F913F913A
:1002B0002F910F900FBE0F901F90189526E8230FD7
:1002C0000296A11DB11DD2CF789484B5826084BD01
:1002D00084B5816084BD85B5826085BD85B581604A
:1002E00085BD80916E00816080936E0010928100C8
:1002F0008091810082608093810080918100816083
:100300008093810080918000816080938000809143
:10031000B10084608093B1008091B00081608093CF
:10032000B00080917A00846080937A0080917A0096
:10033000826080937A0080917A00816080937A0055
:1003400080917A00806880937A001092C10081E0E9
:100350000E94700082E00E94700083E00E947000A2
:1003600084E00E94700085E00E94700090E8E92E11
:10037000F12C20E0C22E20E0D22EC0E0D1E0FE0120
:1003800090E080E0A701082E02C0559547950A9499
:10039000E2F72081242B219301968830910591F773
:1003A00010E8B99060E084E00E948F00612F81E046
:1003B0000E94000161E084E00E948F0060E085E01F
:1003C0000E948F006B2D82E00E94000161E085E0B9
:1003D0000E948F0016950E94DB002B013C0184E1F6
:1003E000882E912CA12CB12C0E94DB006419750978
:1003F00086099709683E734081059105A8F321E0BD
:10040000821A9108A108B10888EE480E83E0581EB0
:10041000611C711C81149104A104B10429F781E0CD
:10042000C830D80709F0BDCFC114D10409F4A5CF55
:0A0430000E940000A2CFF894FFCF55
:00000001FF
